{
  "_format": "hh-sol-artifact-1",
  "contractName": "PayRouteVault",
  "sourceName": "src/PayRouteVault.sol",
  "abi": [
    {
      "inputs": [
        {
          "internalType": "contract IERC20",
          "name": "_asset",
          "type": "address"
        },
        {
          "internalType": "string",
          "name": "_name",
          "type": "string"
        },
        {
          "internalType": "string",
          "name": "_symbol",
          "type": "string"
        }
      ],
      "stateMutability": "nonpayable",
      "type": "constructor"
    },
    {
      "inputs": [
        {
          "internalType": "address",
          "name": "spender",
          "type": "address"
        },
        {
          "internalType": "uint256",
          "name": "allowance",
          "type": "uint256"
        },
        {
          "internalType": "uint256",
          "name": "needed",
          "type": "uint256"
        }
      ],
      "name": "ERC20InsufficientAllowance",
      "type": "error"
    },
    {
      "inputs": [
        {
          "internalType": "address",
          "name": "sender",
          "type": "address"
        },
        {
          "internalType": "uint256",
          "name": "balance",
          "type": "uint256"
        },
        {
          "internalType": "uint256",
          "name": "needed",
          "type": "uint256"
        }
      ],
      "name": "ERC20InsufficientBalance",
      "type": "error"
    },
    {
      "inputs": [
        {
          "internalType": "address",
          "name": "approver",
          "type": "address"
        }
      ],
      "name": "ERC20InvalidApprover",
      "type": "error"
    },
    {
      "inputs": [
        {
          "internalType": "address",
          "name": "receiver",
          "type": "address"
        }
      ],
      "name": "ERC20InvalidReceiver",
      "type": "error"
    },
    {
      "inputs": [
        {
          "internalType": "address",
          "name": "sender",
          "type": "address"
        }
      ],
      "name": "ERC20InvalidSender",
      "type": "error"
    },
    {
      "inputs": [
        {
          "internalType": "address",
          "name": "spender",
          "type": "address"
        }
      ],
      "name": "ERC20InvalidSpender",
      "type": "error"
    },
    {
      "inputs": [
        {
          "internalType": "address",
          "name": "receiver",
          "type": "address"
        },
        {
          "internalType": "uint256",
          "name": "assets",
          "type": "uint256"
        },
        {
          "internalType": "uint256",
          "name": "max",
          "type": "uint256"
        }
      ],
      "name": "ERC4626ExceededMaxDeposit",
      "type": "error"
    },
    {
      "inputs": [
        {
          "internalType": "address",
          "name": "receiver",
          "type": "address"
        },
        {
          "internalType": "uint256",
          "name": "shares",
          "type": "uint256"
        },
        {
          "internalType": "uint256",
          "name": "max",
          "type": "uint256"
        }
      ],
      "name": "ERC4626ExceededMaxMint",
      "type": "error"
    },
    {
      "inputs": [
        {
          "internalType": "address",
          "name": "owner",
          "type": "address"
        },
        {
          "internalType": "uint256",
          "name": "shares",
          "type": "uint256"
        },
        {
          "internalType": "uint256",
          "name": "max",
          "type": "uint256"
        }
      ],
      "name": "ERC4626ExceededMaxRedeem",
      "type": "error"
    },
    {
      "inputs": [
        {
          "internalType": "address",
          "name": "owner",
          "type": "address"
        },
        {
          "internalType": "uint256",
          "name": "assets",
          "type": "uint256"
        },
        {
          "internalType": "uint256",
          "name": "max",
          "type": "uint256"
        }
      ],
      "name": "ERC4626ExceededMaxWithdraw",
      "type": "error"
    },
    {
      "inputs": [
        {
          "internalType": "address",
          "name": "owner",
          "type": "address"
        }
      ],
      "name": "OwnableInvalidOwner",
      "type": "error"
    },
    {
      "inputs": [
        {
          "internalType": "address",
          "name": "account",
          "type": "address"
        }
      ],
      "name": "OwnableUnauthorizedAccount",
      "type": "error"
    },
    {
      "inputs": [
        {
          "internalType": "address",
          "name": "token",
          "type": "address"
        }
      ],
      "name": "SafeERC20FailedOperation",
      "type": "error"
    },
    {
      "anonymous": false,
      "inputs": [
        {
          "indexed": true,
          "internalType": "address",
          "name": "owner",
          "type": "address"
        },
        {
          "indexed": true,
          "internalType": "address",
          "name": "spender",
          "type": "address"
        },
        {
          "indexed": false,
          "internalType": "uint256",
          "name": "value",
          "type": "uint256"
        }
      ],
      "name": "Approval",
      "type": "event"
    },
    {
      "anonymous": false,
      "inputs": [
        {
          "indexed": true,
          "internalType": "address",
          "name": "sender",
          "type": "address"
        },
        {
          "indexed": true,
          "internalType": "address",
          "name": "owner",
          "type": "address"
        },
        {
          "indexed": false,
          "internalType": "uint256",
          "name": "assets",
          "type": "uint256"
        },
        {
          "indexed": false,
          "internalType": "uint256",
          "name": "shares",
          "type": "uint256"
        }
      ],
      "name": "Deposit",
      "type": "event"
    },
    {
      "anonymous": false,
      "inputs": [
        {
          "indexed": true,
          "internalType": "address",
          "name": "previousOwner",
          "type": "address"
        },
        {
          "indexed": true,
          "internalType": "address",
          "name": "newOwner",
          "type": "address"
        }
      ],
      "name": "OwnershipTransferred",
      "type": "event"
    },
    {
      "anonymous": false,
      "inputs": [
        {
          "indexed": true,
          "internalType": "address",
          "name": "from",
          "type": "address"
        },
        {
          "indexed": true,
          "internalType": "address",
          "name": "to",
          "type": "address"
        },
        {
          "indexed": false,
          "internalType": "uint256",
          "name": "value",
          "type": "uint256"
        }
      ],
      "name": "Transfer",
      "type": "event"
    },
    {
      "anonymous": false,
      "inputs": [
        {
          "indexed": true,
          "internalType": "address",
          "name": "sender",
          "type": "address"
        },
        {
          "indexed": true,
          "internalType": "address",
          "name": "receiver",
          "type": "address"
        },
        {
          "indexed": true,
          "internalType": "address",
          "name": "owner",
          "type": "address"
        },
        {
          "indexed": false,
          "internalType": "uint256",
          "name": "assets",
          "type": "uint256"
        },
        {
          "indexed": false,
          "internalType": "uint256",
          "name": "shares",
          "type": "uint256"
        }
      ],
      "name": "Withdraw",
      "type": "event"
    },
    {
      "inputs": [
        {
          "internalType": "address",
          "name": "owner",
          "type": "address"
        },
        {
          "internalType": "address",
          "name": "spender",
          "type": "address"
        }
      ],
      "name": "allowance",
      "outputs": [
        {
          "internalType": "uint256",
          "name": "",
          "type": "uint256"
        }
      ],
      "stateMutability": "view",
      "type": "function"
    },
    {
      "inputs": [
        {
          "internalType": "address",
          "name": "spender",
          "type": "address"
        },
        {
          "internalType": "uint256",
          "name": "value",
          "type": "uint256"
        }
      ],
      "name": "approve",
      "outputs": [
        {
          "internalType": "bool",
          "name": "",
          "type": "bool"
        }
      ],
      "stateMutability": "nonpayable",
      "type": "function"
    },
    {
      "inputs": [],
      "name": "asset",
      "outputs": [
        {
          "internalType": "address",
          "name": "",
          "type": "address"
        }
      ],
      "stateMutability": "view",
      "type": "function"
    },
    {
      "inputs": [
        {
          "internalType": "address",
          "name": "account",
          "type": "address"
        }
      ],
      "name": "balanceOf",
      "outputs": [
        {
          "internalType": "uint256",
          "name": "",
          "type": "uint256"
        }
      ],
      "stateMutability": "view",
      "type": "function"
    },
    {
      "inputs": [
        {
          "internalType": "uint256",
          "name": "shares",
          "type": "uint256"
        }
      ],
      "name": "convertToAssets",
      "outputs": [
        {
          "internalType": "uint256",
          "name": "",
          "type": "uint256"
        }
      ],
      "stateMutability": "view",
      "type": "function"
    },
    {
      "inputs": [
        {
          "internalType": "uint256",
          "name": "assets",
          "type": "uint256"
        }
      ],
      "name": "convertToShares",
      "outputs": [
        {
          "internalType": "uint256",
          "name": "",
          "type": "uint256"
        }
      ],
      "stateMutability": "view",
      "type": "function"
    },
    {
      "inputs": [],
      "name": "decimals",
      "outputs": [
        {
          "internalType": "uint8",
          "name": "",
          "type": "uint8"
        }
      ],
      "stateMutability": "view",
      "type": "function"
    },
    {
      "inputs": [
        {
          "internalType": "uint256",
          "name": "assets",
          "type": "uint256"
        },
        {
          "internalType": "address",
          "name": "receiver",
          "type": "address"
        }
      ],
      "name": "deposit",
      "outputs": [
        {
          "internalType": "uint256",
          "name": "",
          "type": "uint256"
        }
      ],
      "stateMutability": "nonpayable",
      "type": "function"
    },
    {
      "inputs": [
        {
          "internalType": "address",
          "name": "",
          "type": "address"
        }
      ],
      "name": "maxDeposit",
      "outputs": [
        {
          "internalType": "uint256",
          "name": "",
          "type": "uint256"
        }
      ],
      "stateMutability": "view",
      "type": "function"
    },
    {
      "inputs": [
        {
          "internalType": "address",
          "name": "",
          "type": "address"
        }
      ],
      "name": "maxMint",
      "outputs": [
        {
          "internalType": "uint256",
          "name": "",
          "type": "uint256"
        }
      ],
      "stateMutability": "view",
      "type": "function"
    },
    {
      "inputs": [
        {
          "internalType": "address",
          "name": "owner",
          "type": "address"
        }
      ],
      "name": "maxRedeem",
      "outputs": [
        {
          "internalType": "uint256",
          "name": "",
          "type": "uint256"
        }
      ],
      "stateMutability": "view",
      "type": "function"
    },
    {
      "inputs": [
        {
          "internalType": "address",
          "name": "owner",
          "type": "address"
        }
      ],
      "name": "maxWithdraw",
      "outputs": [
        {
          "internalType": "uint256",
          "name": "",
          "type": "uint256"
        }
      ],
      "stateMutability": "view",
      "type": "function"
    },
    {
      "inputs": [
        {
          "internalType": "uint256",
          "name": "shares",
          "type": "uint256"
        },
        {
          "internalType": "address",
          "name": "receiver",
          "type": "address"
        }
      ],
      "name": "mint",
      "outputs": [
        {
          "internalType": "uint256",
          "name": "",
          "type": "uint256"
        }
      ],
      "stateMutability": "nonpayable",
      "type": "function"
    },
    {
      "inputs": [],
      "name": "name",
      "outputs": [
        {
          "internalType": "string",
          "name": "",
          "type": "string"
        }
      ],
      "stateMutability": "view",
      "type": "function"
    },
    {
      "inputs": [],
      "name": "owner",
      "outputs": [
        {
          "internalType": "address",
          "name": "",
          "type": "address"
        }
      ],
      "stateMutability": "view",
      "type": "function"
    },
    {
      "inputs": [
        {
          "internalType": "uint256",
          "name": "assets",
          "type": "uint256"
        }
      ],
      "name": "previewDeposit",
      "outputs": [
        {
          "internalType": "uint256",
          "name": "",
          "type": "uint256"
        }
      ],
      "stateMutability": "view",
      "type": "function"
    },
    {
      "inputs": [
        {
          "internalType": "uint256",
          "name": "shares",
          "type": "uint256"
        }
      ],
      "name": "previewMint",
      "outputs": [
        {
          "internalType": "uint256",
          "name": "",
          "type": "uint256"
        }
      ],
      "stateMutability": "view",
      "type": "function"
    },
    {
      "inputs": [
        {
          "internalType": "uint256",
          "name": "shares",
          "type": "uint256"
        }
      ],
      "name": "previewRedeem",
      "outputs": [
        {
          "internalType": "uint256",
          "name": "",
          "type": "uint256"
        }
      ],
      "stateMutability": "view",
      "type": "function"
    },
    {
      "inputs": [
        {
          "internalType": "uint256",
          "name": "assets",
          "type": "uint256"
        }
      ],
      "name": "previewWithdraw",
      "outputs": [
        {
          "internalType": "uint256",
          "name": "",
          "type": "uint256"
        }
      ],
      "stateMutability": "view",
      "type": "function"
    },
    {
      "inputs": [
        {
          "internalType": "uint256",
          "name": "shares",
          "type": "uint256"
        },
        {
          "internalType": "address",
          "name": "receiver",
          "type": "address"
        },
        {
          "internalType": "address",
          "name": "owner",
          "type": "address"
        }
      ],
      "name": "redeem",
      "outputs": [
        {
          "internalType": "uint256",
          "name": "",
          "type": "uint256"
        }
      ],
      "stateMutability": "nonpayable",
      "type": "function"
    },
    {
      "inputs": [],
      "name": "renounceOwnership",
      "outputs": [],
      "stateMutability": "nonpayable",
      "type": "function"
    },
    {
      "inputs": [],
      "name": "symbol",
      "outputs": [
        {
          "internalType": "string",
          "name": "",
          "type": "string"
        }
      ],
      "stateMutability": "view",
      "type": "function"
    },
    {
      "inputs": [],
      "name": "totalAssets",
      "outputs": [
        {
          "internalType": "uint256",
          "name": "",
          "type": "uint256"
        }
      ],
      "stateMutability": "view",
      "type": "function"
    },
    {
      "inputs": [],
      "name": "totalSupply",
      "outputs": [
        {
          "internalType": "uint256",
          "name": "",
          "type": "uint256"
        }
      ],
      "stateMutability": "view",
      "type": "function"
    },
    {
      "inputs": [
        {
          "internalType": "address",
          "name": "to",
          "type": "address"
        },
        {
          "internalType": "uint256",
          "name": "value",
          "type": "uint256"
        }
      ],
      "name": "transfer",
      "outputs": [
        {
          "internalType": "bool",
          "name": "",
          "type": "bool"
        }
      ],
      "stateMutability": "nonpayable",
      "type": "function"
    },
    {
      "inputs": [
        {
          "internalType": "address",
          "name": "from",
          "type": "address"
        },
        {
          "internalType": "address",
          "name": "to",
          "type": "address"
        },
        {
          "internalType": "uint256",
          "name": "value",
          "type": "uint256"
        }
      ],
      "name": "transferFrom",
      "outputs": [
        {
          "internalType": "bool",
          "name": "",
          "type": "bool"
        }
      ],
      "stateMutability": "nonpayable",
      "type": "function"
    },
    {
      "inputs": [
        {
          "internalType": "address",
          "name": "newOwner",
          "type": "address"
        }
      ],
      "name": "transferOwnership",
      "outputs": [],
      "stateMutability": "nonpayable",
      "type": "function"
    },
    {
      "inputs": [
        {
          "internalType": "uint256",
          "name": "assets",
          "type": "uint256"
        },
        {
          "internalType": "address",
          "name": "receiver",
          "type": "address"
        },
        {
          "internalType": "address",
          "name": "owner",
          "type": "address"
        }
      ],
      "name": "withdraw",
      "outputs": [
        {
          "internalType": "uint256",
          "name": "",
          "type": "uint256"
        }
      ],
      "stateMutability": "nonpayable",
      "type": "function"
    }
  ],
  "bytecode": "0x60c060405234801561001057600080fd5b50604051612c79380380612c7983398181016040528101906100329190610505565b33838383816003908161004591906107b1565b50806004908161005591906107b1565b50505060008061006a8361014a60201b60201c565b915091508161007a57601261007c565b805b60ff1660a08160ff16815250508273ffffffffffffffffffffffffffffffffffffffff1660808173ffffffffffffffffffffffffffffffffffffffff1681525050505050600073ffffffffffffffffffffffffffffffffffffffff168173ffffffffffffffffffffffffffffffffffffffff16036101325760006040517f1e4fbdf70000000000000000000000000000000000000000000000000000000081526004016101299190610892565b60405180910390fd5b6101418161025a60201b60201c565b50505050610964565b6000806000808473ffffffffffffffffffffffffffffffffffffffff1660405160240160405160208183030381529060405263313ce56760e01b6020820180517bffffffffffffffffffffffffffffffffffffffffffffffffffffffff83818316178352505050506040516101bf91906108f4565b600060405180830381855afa9150503d80600081146101fa576040519150601f19603f3d011682016040523d82523d6000602084013e6101ff565b606091505b509150915081801561021357506020815110155b1561024b5760008180602001905181019061022e9190610937565b905060ff801681116102495760018194509450505050610255565b505b6000809350935050505b915091565b6000600560009054906101000a900473ffffffffffffffffffffffffffffffffffffffff16905081600560006101000a81548173ffffffffffffffffffffffffffffffffffffffff021916908373ffffffffffffffffffffffffffffffffffffffff1602179055508173ffffffffffffffffffffffffffffffffffffffff168173ffffffffffffffffffffffffffffffffffffffff167f8be0079c531659141344cd1fd0a4f28419497f9722a3daafe3b4186f6b6457e060405160405180910390a35050565b6000604051905090565b600080fd5b600080fd5b600073ffffffffffffffffffffffffffffffffffffffff82169050919050565b600061035f82610334565b9050919050565b600061037182610354565b9050919050565b61038181610366565b811461038c57600080fd5b50565b60008151905061039e81610378565b92915050565b600080fd5b600080fd5b6000601f19601f8301169050919050565b7f4e487b7100000000000000000000000000000000000000000000000000000000600052604160045260246000fd5b6103f7826103ae565b810181811067ffffffffffffffff82111715610416576104156103bf565b5b80604052505050565b6000610429610320565b905061043582826103ee565b919050565b600067ffffffffffffffff821115610455576104546103bf565b5b61045e826103ae565b9050602081019050919050565b60005b8381101561048957808201518184015260208101905061046e565b60008484015250505050565b60006104a86104a38461043a565b61041f565b9050828152602081018484840111156104c4576104c36103a9565b5b6104cf84828561046b565b509392505050565b600082601f8301126104ec576104eb6103a4565b5b81516104fc848260208601610495565b91505092915050565b60008060006060848603121561051e5761051d61032a565b5b600061052c8682870161038f565b935050602084015167ffffffffffffffff81111561054d5761054c61032f565b5b610559868287016104d7565b925050604084015167ffffffffffffffff81111561057a5761057961032f565b5b610586868287016104d7565b9150509250925092565b600081519050919050565b7f4e487b7100000000000000000000000000000000000000000000000000000000600052602260045260246000fd5b600060028204905060018216806105e257607f821691505b6020821081036105f5576105f461059b565b5b50919050565b60008190508160005260206000209050919050565b60006020601f8301049050919050565b600082821b905092915050565b60006008830261065d7fffffffffffffffffffffffffffffffffffffffffffffffffffffffffffffffff82610620565b6106678683610620565b95508019841693508086168417925050509392505050565b6000819050919050565b6000819050919050565b60006106ae6106a96106a48461067f565b610689565b61067f565b9050919050565b6000819050919050565b6106c883610693565b6106dc6106d4826106b5565b84845461062d565b825550505050565b600090565b6106f16106e4565b6106fc8184846106bf565b505050565b5b81811015610720576107156000826106e9565b600181019050610702565b5050565b601f82111561076557610736816105fb565b61073f84610610565b8101602085101561074e578190505b61076261075a85610610565b830182610701565b50505b505050565b600082821c905092915050565b60006107886000198460080261076a565b1980831691505092915050565b60006107a18383610777565b9150826002028217905092915050565b6107ba82610590565b67ffffffffffffffff8111156107d3576107d26103bf565b5b6107dd82546105ca565b6107e8828285610724565b600060209050601f83116001811461081b5760008415610809578287015190505b6108138582610795565b86555061087b565b601f198416610829866105fb565b60005b828110156108515784890151825560018201915060208501945060208101905061082c565b8683101561086e578489015161086a601f891682610777565b8355505b6001600288020188555050505b505050505050565b61088c81610354565b82525050565b60006020820190506108a76000830184610883565b92915050565b600081519050919050565b600081905092915050565b60006108ce826108ad565b6108d881856108b8565b93506108e881856020860161046b565b80840191505092915050565b600061090082846108c3565b915081905092915050565b6109148161067f565b811461091f57600080fd5b50565b6000815190506109318161090b565b92915050565b60006020828403121561094d5761094c61032a565b5b600061095b84828501610922565b91505092915050565b60805160a0516122f061098960003960006107fb0152600061082d01526122f06000f3fe608060405234801561001057600080fd5b50600436106101c45760003560e01c80638da5cb5b116100f9578063c63d75b611610097578063d905777e11610071578063d905777e146105a5578063dd62ed3e146105d5578063ef8b30f714610605578063f2fde38b14610635576101c4565b8063c63d75b614610515578063c6e6f59214610545578063ce96cb7714610575576101c4565b8063a9059cbb116100d3578063a9059cbb14610455578063b3d7f6b914610485578063b460af94146104b5578063ba087652146104e5576101c4565b80638da5cb5b146103e957806394bf804d1461040757806395d89b4114610437576101c4565b8063313ce567116101665780634cdad506116101405780634cdad5061461034f5780636e553f651461037f57806370a08231146103af578063715018a6146103df576101c4565b8063313ce567146102e357806338d52e0f14610301578063402d267d1461031f576101c4565b8063095ea7b3116101a2578063095ea7b3146102355780630a28a4771461026557806318160ddd1461029557806323b872dd146102b3576101c4565b806301e1d114146101c957806306fdde03146101e757806307a2d13a14610205575b600080fd5b6101d1610651565b6040516101de9190611b00565b60405180910390f35b6101ef6106d9565b6040516101fc9190611bab565b60405180910390f35b61021f600480360381019061021a9190611bfe565b61076b565b60405161022c9190611b00565b60405180910390f35b61024f600480360381019061024a9190611c89565b61077f565b60405161025c9190611ce4565b60405180910390f35b61027f600480360381019061027a9190611bfe565b6107a2565b60405161028c9190611b00565b60405180910390f35b61029d6107b6565b6040516102aa9190611b00565b60405180910390f35b6102cd60048036038101906102c89190611cff565b6107c0565b6040516102da9190611ce4565b60405180910390f35b6102eb6107ef565b6040516102f89190611d6e565b60405180910390f35b610309610829565b6040516103169190611d98565b60405180910390f35b61033960048036038101906103349190611db3565b610851565b6040516103469190611b00565b60405180910390f35b61036960048036038101906103649190611bfe565b61087b565b6040516103769190611b00565b60405180910390f35b61039960048036038101906103949190611de0565b61088f565b6040516103a69190611b00565b60405180910390f35b6103c960048036038101906103c49190611db3565b610911565b6040516103d69190611b00565b60405180910390f35b6103e7610959565b005b6103f161096d565b6040516103fe9190611d98565b60405180910390f35b610421600480360381019061041c9190611de0565b610997565b60405161042e9190611b00565b60405180910390f35b61043f610a19565b60405161044c9190611bab565b60405180910390f35b61046f600480360381019061046a9190611c89565b610aab565b60405161047c9190611ce4565b60405180910390f35b61049f600480360381019061049a9190611bfe565b610ace565b6040516104ac9190611b00565b60405180910390f35b6104cf60048036038101906104ca9190611e20565b610ae2565b6040516104dc9190611b00565b60405180910390f35b6104ff60048036038101906104fa9190611e20565b610b66565b60405161050c9190611b00565b60405180910390f35b61052f600480360381019061052a9190611db3565b610bea565b60405161053c9190611b00565b60405180910390f35b61055f600480360381019061055a9190611bfe565b610c14565b60405161056c9190611b00565b60405180910390f35b61058f600480360381019061058a9190611db3565b610c28565b60405161059c9190611b00565b60405180910390f35b6105bf60048036038101906105ba9190611db3565b610c44565b6040516105cc9190611b00565b60405180910390f35b6105ef60048036038101906105ea9190611e73565b610c56565b6040516105fc9190611b00565b60405180910390f35b61061f600480360381019061061a9190611bfe565b610cdd565b60405161062c9190611b00565b60405180910390f35b61064f600480360381019061064a9190611db3565b610cf1565b005b600061065b610829565b73ffffffffffffffffffffffffffffffffffffffff166370a08231306040518263ffffffff1660e01b81526004016106939190611d98565b602060405180830381865afa1580156106b0573d6000803e3d6000fd5b505050506040513d601f19601f820116820180604052508101906106d49190611ec8565b905090565b6060600380546106e890611f24565b80601f016020809104026020016040519081016040528092919081815260200182805461071490611f24565b80156107615780601f1061073657610100808354040283529160200191610761565b820191906000526020600020905b81548152906001019060200180831161074457829003601f168201915b5050505050905090565b6000610778826000610d77565b9050919050565b60008061078a610dd0565b9050610797818585610dd8565b600191505092915050565b60006107af826001610dea565b9050919050565b6000600254905090565b6000806107cb610dd0565b90506107d8858285610e43565b6107e3858585610ed8565b60019150509392505050565b60006107f9610fcc565b7f00000000000000000000000000000000000000000000000000000000000000006108249190611f84565b905090565b60007f0000000000000000000000000000000000000000000000000000000000000000905090565b60007fffffffffffffffffffffffffffffffffffffffffffffffffffffffffffffffff9050919050565b6000610888826000610d77565b9050919050565b60008061089b83610851565b9050808411156108e6578284826040517f79012fb20000000000000000000000000000000000000000000000000000000081526004016108dd93929190611fb9565b60405180910390fd5b60006108f185610cdd565b90506109066108fe610dd0565b858784610fd1565b809250505092915050565b60008060008373ffffffffffffffffffffffffffffffffffffffff1673ffffffffffffffffffffffffffffffffffffffff168152602001908152602001600020549050919050565b61096161105b565b61096b60006110e2565b565b6000600560009054906101000a900473ffffffffffffffffffffffffffffffffffffffff16905090565b6000806109a383610bea565b9050808411156109ee578284826040517f284ff6670000000000000000000000000000000000000000000000000000000081526004016109e593929190611fb9565b60405180910390fd5b60006109f985610ace565b9050610a0e610a06610dd0565b858388610fd1565b809250505092915050565b606060048054610a2890611f24565b80601f0160208091040260200160405190810160405280929190818152602001828054610a5490611f24565b8015610aa15780601f10610a7657610100808354040283529160200191610aa1565b820191906000526020600020905b815481529060010190602001808311610a8457829003601f168201915b5050505050905090565b600080610ab6610dd0565b9050610ac3818585610ed8565b600191505092915050565b6000610adb826001610d77565b9050919050565b600080610aee83610c28565b905080851115610b39578285826040517ffe9cceec000000000000000000000000000000000000000000000000000000008152600401610b3093929190611fb9565b60405180910390fd5b6000610b44866107a2565b9050610b5a610b51610dd0565b868689856111a8565b80925050509392505050565b600080610b7283610c44565b905080851115610bbd578285826040517fb94abeec000000000000000000000000000000000000000000000000000000008152600401610bb493929190611fb9565b60405180910390fd5b6000610bc88661087b565b9050610bde610bd5610dd0565b8686848a6111a8565b80925050509392505050565b60007fffffffffffffffffffffffffffffffffffffffffffffffffffffffffffffffff9050919050565b6000610c21826000610dea565b9050919050565b6000610c3d610c3683610911565b6000610d77565b9050919050565b6000610c4f82610911565b9050919050565b6000600160008473ffffffffffffffffffffffffffffffffffffffff1673ffffffffffffffffffffffffffffffffffffffff16815260200190815260200160002060008373ffffffffffffffffffffffffffffffffffffffff1673ffffffffffffffffffffffffffffffffffffffff16815260200190815260200160002054905092915050565b6000610cea826000610dea565b9050919050565b610cf961105b565b600073ffffffffffffffffffffffffffffffffffffffff168173ffffffffffffffffffffffffffffffffffffffff1603610d6b5760006040517f1e4fbdf7000000000000000000000000000000000000000000000000000000008152600401610d629190611d98565b60405180910390fd5b610d74816110e2565b50565b6000610dc86001610d86610651565b610d909190611ff0565b610d98610fcc565b600a610da49190612157565b610dac6107b6565b610db69190611ff0565b8486611288909392919063ffffffff16565b905092915050565b600033905090565b610de583838360016112d7565b505050565b6000610e3b610df7610fcc565b600a610e039190612157565b610e0b6107b6565b610e159190611ff0565b6001610e1f610651565b610e299190611ff0565b8486611288909392919063ffffffff16565b905092915050565b6000610e4f8484610c56565b90507fffffffffffffffffffffffffffffffffffffffffffffffffffffffffffffffff811015610ed25781811015610ec2578281836040517ffb8f41b2000000000000000000000000000000000000000000000000000000008152600401610eb993929190611fb9565b60405180910390fd5b610ed1848484840360006112d7565b5b50505050565b600073ffffffffffffffffffffffffffffffffffffffff168373ffffffffffffffffffffffffffffffffffffffff1603610f4a5760006040517f96c6fd1e000000000000000000000000000000000000000000000000000000008152600401610f419190611d98565b60405180910390fd5b600073ffffffffffffffffffffffffffffffffffffffff168273ffffffffffffffffffffffffffffffffffffffff1603610fbc5760006040517fec442f05000000000000000000000000000000000000000000000000000000008152600401610fb39190611d98565b60405180910390fd5b610fc78383836114ae565b505050565b600090565b610fe4610fdc610829565b8530856116d3565b610fee8382611755565b8273ffffffffffffffffffffffffffffffffffffffff168473ffffffffffffffffffffffffffffffffffffffff167fdcbc1c05240f31ff3ad067ef1ee35ce4997762752e3a095284754544f4c709d7848460405161104d9291906121a2565b60405180910390a350505050565b611063610dd0565b73ffffffffffffffffffffffffffffffffffffffff1661108161096d565b73ffffffffffffffffffffffffffffffffffffffff16146110e0576110a4610dd0565b6040517f118cdaa70000000000000000000000000000000000000000000000000000000081526004016110d79190611d98565b60405180910390fd5b565b6000600560009054906101000a900473ffffffffffffffffffffffffffffffffffffffff16905081600560006101000a81548173ffffffffffffffffffffffffffffffffffffffff021916908373ffffffffffffffffffffffffffffffffffffffff1602179055508173ffffffffffffffffffffffffffffffffffffffff168173ffffffffffffffffffffffffffffffffffffffff167f8be0079c531659141344cd1fd0a4f28419497f9722a3daafe3b4186f6b6457e060405160405180910390a35050565b8273ffffffffffffffffffffffffffffffffffffffff168573ffffffffffffffffffffffffffffffffffffffff16146111e7576111e6838683610e43565b5b6111f183826117d7565b6112036111fc610829565b8584611859565b8273ffffffffffffffffffffffffffffffffffffffff168473ffffffffffffffffffffffffffffffffffffffff168673ffffffffffffffffffffffffffffffffffffffff167ffbde797d201c681b91056529119e0b02407c7bb96a4a2c75c01fc9667232c8db85856040516112799291906121a2565b60405180910390a45050505050565b60006112b8611296836118d8565b80156112b35750600084806112ae576112ad6121cb565b5b868809115b611906565b6112c3868686611912565b6112cd9190611ff0565b9050949350505050565b600073ffffffffffffffffffffffffffffffffffffffff168473ffffffffffffffffffffffffffffffffffffffff16036113495760006040517fe602df050000000000000000000000000000000000000000000000000000000081526004016113409190611d98565b60405180910390fd5b600073ffffffffffffffffffffffffffffffffffffffff168373ffffffffffffffffffffffffffffffffffffffff16036113bb5760006040517f94280d620000000000000000000000000000000000000000000000000000000081526004016113b29190611d98565b60405180910390fd5b81600160008673ffffffffffffffffffffffffffffffffffffffff1673ffffffffffffffffffffffffffffffffffffffff16815260200190815260200160002060008573ffffffffffffffffffffffffffffffffffffffff1673ffffffffffffffffffffffffffffffffffffffff1681526020019081526020016000208190555080156114a8578273ffffffffffffffffffffffffffffffffffffffff168473ffffffffffffffffffffffffffffffffffffffff167f8c5be1e5ebec7d5bd14f71427d1e84f3dd0314c0f7b2291e5b200ac8c7c3b9258460405161149f9190611b00565b60405180910390a35b50505050565b600073ffffffffffffffffffffffffffffffffffffffff168373ffffffffffffffffffffffffffffffffffffffff16036115005780600260008282546114f49190611ff0565b925050819055506115d3565b60008060008573ffffffffffffffffffffffffffffffffffffffff1673ffffffffffffffffffffffffffffffffffffffff1681526020019081526020016000205490508181101561158c578381836040517fe450d38c00000000000000000000000000000000000000000000000000000000815260040161158393929190611fb9565b60405180910390fd5b8181036000808673ffffffffffffffffffffffffffffffffffffffff1673ffffffffffffffffffffffffffffffffffffffff16815260200190815260200160002081905550505b600073ffffffffffffffffffffffffffffffffffffffff168273ffffffffffffffffffffffffffffffffffffffff160361161c5780600260008282540392505081905550611669565b806000808473ffffffffffffffffffffffffffffffffffffffff1673ffffffffffffffffffffffffffffffffffffffff168152602001908152602001600020600082825401925050819055505b8173ffffffffffffffffffffffffffffffffffffffff168373ffffffffffffffffffffffffffffffffffffffff167fddf252ad1be2c89b69c2b068fc378daa952ba7f163c4a11628f55a4df523b3ef836040516116c69190611b00565b60405180910390a3505050565b61174f848573ffffffffffffffffffffffffffffffffffffffff166323b872dd868686604051602401611708939291906121fa565b604051602081830303815290604052915060e01b6020820180517bffffffffffffffffffffffffffffffffffffffffffffffffffffffff83818316178352505050506119fa565b50505050565b600073ffffffffffffffffffffffffffffffffffffffff168273ffffffffffffffffffffffffffffffffffffffff16036117c75760006040517fec442f050000000000000000000000000000000000000000000000000000000081526004016117be9190611d98565b60405180910390fd5b6117d3600083836114ae565b5050565b600073ffffffffffffffffffffffffffffffffffffffff168273ffffffffffffffffffffffffffffffffffffffff16036118495760006040517f96c6fd1e0000000000000000000000000000000000000000000000000000000081526004016118409190611d98565b60405180910390fd5b611855826000836114ae565b5050565b6118d3838473ffffffffffffffffffffffffffffffffffffffff1663a9059cbb858560405160240161188c929190612231565b604051602081830303815290604052915060e01b6020820180517bffffffffffffffffffffffffffffffffffffffffffffffffffffffff83818316178352505050506119fa565b505050565b6000600160028360038111156118f1576118f061225a565b5b6118fb9190612289565b60ff16149050919050565b60008115159050919050565b60008060006119218686611a9c565b91509150600082036119475783818161193d5761193c6121cb565b5b04925050506119f3565b818411611967576119666119616000861460126011611abb565b611ad5565b5b600084868809905081811183039250808203915060008560000386169050808604955080830492506001818260000304019050808402831792506000600287600302189050808702600203810290508087026002038102905080870260020381029050808702600203810290508087026002038102905080870260020381029050808402955050505050505b9392505050565b600080602060008451602086016000885af180611a1d576040513d6000823e3d81fd5b3d925060005191505060008214611a38576001811415611a54565b60008473ffffffffffffffffffffffffffffffffffffffff163b145b15611a9657836040517f5274afe7000000000000000000000000000000000000000000000000000000008152600401611a8d9190611d98565b60405180910390fd5b50505050565b6000806000198385098385029150818110828203039250509250929050565b6000611ac684611906565b82841802821890509392505050565b634e487b71600052806020526024601cfd5b6000819050919050565b611afa81611ae7565b82525050565b6000602082019050611b156000830184611af1565b92915050565b600081519050919050565b600082825260208201905092915050565b60005b83811015611b55578082015181840152602081019050611b3a565b60008484015250505050565b6000601f19601f8301169050919050565b6000611b7d82611b1b565b611b878185611b26565b9350611b97818560208601611b37565b611ba081611b61565b840191505092915050565b60006020820190508181036000830152611bc58184611b72565b905092915050565b600080fd5b611bdb81611ae7565b8114611be657600080fd5b50565b600081359050611bf881611bd2565b92915050565b600060208284031215611c1457611c13611bcd565b5b6000611c2284828501611be9565b91505092915050565b600073ffffffffffffffffffffffffffffffffffffffff82169050919050565b6000611c5682611c2b565b9050919050565b611c6681611c4b565b8114611c7157600080fd5b50565b600081359050611c8381611c5d565b92915050565b60008060408385031215611ca057611c9f611bcd565b5b6000611cae85828601611c74565b9250506020611cbf85828601611be9565b9150509250929050565b60008115159050919050565b611cde81611cc9565b82525050565b6000602082019050611cf96000830184611cd5565b92915050565b600080600060608486031215611d1857611d17611bcd565b5b6000611d2686828701611c74565b9350506020611d3786828701611c74565b9250506040611d4886828701611be9565b9150509250925092565b600060ff82169050919050565b611d6881611d52565b82525050565b6000602082019050611d836000830184611d5f565b92915050565b611d9281611c4b565b82525050565b6000602082019050611dad6000830184611d89565b92915050565b600060208284031215611dc957611dc8611bcd565b5b6000611dd784828501611c74565b91505092915050565b60008060408385031215611df757611df6611bcd565b5b6000611e0585828601611be9565b9250506020611e1685828601611c74565b9150509250929050565b600080600060608486031215611e3957611e38611bcd565b5b6000611e4786828701611be9565b9350506020611e5886828701611c74565b9250506040611e6986828701611c74565b9150509250925092565b60008060408385031215611e8a57611e89611bcd565b5b6000611e9885828601611c74565b9250506020611ea985828601611c74565b9150509250929050565b600081519050611ec281611bd2565b92915050565b600060208284031215611ede57611edd611bcd565b5b6000611eec84828501611eb3565b91505092915050565b7f4e487b7100000000000000000000000000000000000000000000000000000000600052602260045260246000fd5b60006002820490506001821680611f3c57607f821691505b602082108103611f4f57611f4e611ef5565b5b50919050565b7f4e487b7100000000000000000000000000000000000000000000000000000000600052601160045260246000fd5b6000611f8f82611d52565b9150611f9a83611d52565b9250828201905060ff811115611fb357611fb2611f55565b5b92915050565b6000606082019050611fce6000830186611d89565b611fdb6020830185611af1565b611fe86040830184611af1565b949350505050565b6000611ffb82611ae7565b915061200683611ae7565b925082820190508082111561201e5761201d611f55565b5b92915050565b60008160011c9050919050565b6000808291508390505b600185111561207b5780860481111561205757612056611f55565b5b60018516156120665780820291505b808102905061207485612024565b945061203b565b94509492505050565b6000826120945760019050612150565b816120a25760009050612150565b81600181146120b857600281146120c2576120f1565b6001915050612150565b60ff8411156120d4576120d3611f55565b5b8360020a9150848211156120eb576120ea611f55565b5b50612150565b5060208310610133831016604e8410600b84101617156121265782820a90508381111561212157612120611f55565b5b612150565b6121338484846001612031565b9250905081840481111561214a57612149611f55565b5b81810290505b9392505050565b600061216282611ae7565b915061216d83611d52565b925061219a7fffffffffffffffffffffffffffffffffffffffffffffffffffffffffffffffff8484612084565b905092915050565b60006040820190506121b76000830185611af1565b6121c46020830184611af1565b9392505050565b7f4e487b7100000000000000000000000000000000000000000000000000000000600052601260045260246000fd5b600060608201905061220f6000830186611d89565b61221c6020830185611d89565b6122296040830184611af1565b949350505050565b60006040820190506122466000830185611d89565b6122536020830184611af1565b9392505050565b7f4e487b7100000000000000000000000000000000000000000000000000000000600052602160045260246000fd5b600061229482611d52565b915061229f83611d52565b9250826122af576122ae6121cb565b5b82820690509291505056fea2646970667358221220d45ec8a76182ff6a988a3292acaaae983542eca3bb17b67e9eff9b342b7df65b64736f6c634300081b0033",
  "linkReferences": {},
  "deployedLinkReferences": {}
}