{
  "_format": "hh-sol-artifact-1",
  "contractName": "PayRouteIdentityGate",
  "sourceName": "src/PayRouteIdentityGate.sol",
  "abi": [
    {
      "inputs": [
        {
          "internalType": "address",
          "name": "_verifier",
          "type": "address"
        },
        {
          "internalType": "uint256",
          "name": "_humanityRequestId",
          "type": "uint256"
        },
        {
          "internalType": "uint256",
          "name": "_ageRequestId",
          "type": "uint256"
        }
      ],
      "stateMutability": "nonpayable",
      "type": "constructor"
    },
    {
      "inputs": [
        {
          "internalType": "address",
          "name": "owner",
          "type": "address"
        }
      ],
      "name": "OwnableInvalidOwner",
      "type": "error"
    },
    {
      "inputs": [
        {
          "internalType": "address",
          "name": "account",
          "type": "address"
        }
      ],
      "name": "OwnableUnauthorizedAccount",
      "type": "error"
    },
    {
      "anonymous": false,
      "inputs": [
        {
          "indexed": true,
          "internalType": "address",
          "name": "user",
          "type": "address"
        },
        {
          "indexed": false,
          "internalType": "bool",
          "name": "status",
          "type": "bool"
        }
      ],
      "name": "IdentityVerified",
      "type": "event"
    },
    {
      "anonymous": false,
      "inputs": [
        {
          "indexed": true,
          "internalType": "address",
          "name": "previousOwner",
          "type": "address"
        },
        {
          "indexed": true,
          "internalType": "address",
          "name": "newOwner",
          "type": "address"
        }
      ],
      "name": "OwnershipTransferred",
      "type": "event"
    },
    {
      "anonymous": false,
      "inputs": [
        {
          "indexed": false,
          "internalType": "uint256",
          "name": "humanity",
          "type": "uint256"
        },
        {
          "indexed": false,
          "internalType": "uint256",
          "name": "age",
          "type": "uint256"
        }
      ],
      "name": "RequestIdsUpdated",
      "type": "event"
    },
    {
      "anonymous": false,
      "inputs": [
        {
          "indexed": true,
          "internalType": "address",
          "name": "newVerifier",
          "type": "address"
        }
      ],
      "name": "VerifierUpdated",
      "type": "event"
    },
    {
      "inputs": [],
      "name": "ageRequestId",
      "outputs": [
        {
          "internalType": "uint256",
          "name": "",
          "type": "uint256"
        }
      ],
      "stateMutability": "view",
      "type": "function"
    },
    {
      "inputs": [
        {
          "internalType": "address",
          "name": "user",
          "type": "address"
        }
      ],
      "name": "hasAccess",
      "outputs": [
        {
          "internalType": "bool",
          "name": "",
          "type": "bool"
        }
      ],
      "stateMutability": "view",
      "type": "function"
    },
    {
      "inputs": [],
      "name": "humanityRequestId",
      "outputs": [
        {
          "internalType": "uint256",
          "name": "",
          "type": "uint256"
        }
      ],
      "stateMutability": "view",
      "type": "function"
    },
    {
      "inputs": [
        {
          "internalType": "address",
          "name": "user",
          "type": "address"
        }
      ],
      "name": "isAdult",
      "outputs": [
        {
          "internalType": "bool",
          "name": "",
          "type": "bool"
        }
      ],
      "stateMutability": "view",
      "type": "function"
    },
    {
      "inputs": [
        {
          "internalType": "address",
          "name": "user",
          "type": "address"
        }
      ],
      "name": "isHuman",
      "outputs": [
        {
          "internalType": "bool",
          "name": "",
          "type": "bool"
        }
      ],
      "stateMutability": "view",
      "type": "function"
    },
    {
      "inputs": [],
      "name": "owner",
      "outputs": [
        {
          "internalType": "address",
          "name": "",
          "type": "address"
        }
      ],
      "stateMutability": "view",
      "type": "function"
    },
    {
      "inputs": [],
      "name": "renounceOwnership",
      "outputs": [],
      "stateMutability": "nonpayable",
      "type": "function"
    },
    {
      "inputs": [
        {
          "internalType": "uint256",
          "name": "_humanityRequestId",
          "type": "uint256"
        },
        {
          "internalType": "uint256",
          "name": "_ageRequestId",
          "type": "uint256"
        }
      ],
      "name": "setRequestIds",
      "outputs": [],
      "stateMutability": "nonpayable",
      "type": "function"
    },
    {
      "inputs": [
        {
          "internalType": "address",
          "name": "_verifier",
          "type": "address"
        }
      ],
      "name": "setVerifier",
      "outputs": [],
      "stateMutability": "nonpayable",
      "type": "function"
    },
    {
      "inputs": [
        {
          "internalType": "address",
          "name": "newOwner",
          "type": "address"
        }
      ],
      "name": "transferOwnership",
      "outputs": [],
      "stateMutability": "nonpayable",
      "type": "function"
    },
    {
      "inputs": [],
      "name": "universalVerifier",
      "outputs": [
        {
          "internalType": "contract IVerifier",
          "name": "",
          "type": "address"
        }
      ],
      "stateMutability": "view",
      "type": "function"
    }
  ],
  "bytecode": "0x608060405234801561001057600080fd5b50604051610e36380380610e3683398181016040528101906100329190610269565b33600073ffffffffffffffffffffffffffffffffffffffff168173ffffffffffffffffffffffffffffffffffffffff16036100a55760006040517f1e4fbdf700000000000000000000000000000000000000000000000000000000815260040161009c91906102cb565b60405180910390fd5b6100b48161010c60201b60201c565b5082600160006101000a81548173ffffffffffffffffffffffffffffffffffffffff021916908373ffffffffffffffffffffffffffffffffffffffff16021790555081600281905550806003819055505050506102e6565b60008060009054906101000a900473ffffffffffffffffffffffffffffffffffffffff169050816000806101000a81548173ffffffffffffffffffffffffffffffffffffffff021916908373ffffffffffffffffffffffffffffffffffffffff1602179055508173ffffffffffffffffffffffffffffffffffffffff168173ffffffffffffffffffffffffffffffffffffffff167f8be0079c531659141344cd1fd0a4f28419497f9722a3daafe3b4186f6b6457e060405160405180910390a35050565b600080fd5b600073ffffffffffffffffffffffffffffffffffffffff82169050919050565b6000610200826101d5565b9050919050565b610210816101f5565b811461021b57600080fd5b50565b60008151905061022d81610207565b92915050565b6000819050919050565b61024681610233565b811461025157600080fd5b50565b6000815190506102638161023d565b92915050565b600080600060608486031215610282576102816101d0565b5b60006102908682870161021e565b93505060206102a186828701610254565b92505060406102b286828701610254565b9150509250925092565b6102c5816101f5565b82525050565b60006020820190506102e060008301846102bc565b92915050565b610b41806102f56000396000f3fe608060405234801561001057600080fd5b50600436106100a95760003560e01c80638da5cb5b116100715780638da5cb5b1461012c57806391a6432a1461014a57806395a078e814610168578063eb13ec8614610198578063f2fde38b146101c8578063f72c436f146101e4576100a9565b80630ae192fc146100ae5780635437988d146100cc5780636dd458f9146100e8578063715018a614610106578063767f3be214610110575b600080fd5b6100b6610214565b6040516100c3919061086f565b60405180910390f35b6100e660048036038101906100e191906108ed565b61021a565b005b6100f06102a9565b6040516100fd9190610979565b60405180910390f35b61010e6102cf565b005b61012a600480360381019061012591906109c0565b6102e3565b005b610134610336565b6040516101419190610a0f565b60405180910390f35b61015261035f565b60405161015f919061086f565b60405180910390f35b610182600480360381019061017d91906108ed565b610365565b60405161018f9190610a45565b60405180910390f35b6101b260048036038101906101ad91906108ed565b61046d565b6040516101bf9190610a45565b60405180910390f35b6101e260048036038101906101dd91906108ed565b610575565b005b6101fe60048036038101906101f991906108ed565b6105fb565b60405161020b9190610a45565b60405180910390f35b60035481565b610222610703565b80600160006101000a81548173ffffffffffffffffffffffffffffffffffffffff021916908373ffffffffffffffffffffffffffffffffffffffff1602179055508073ffffffffffffffffffffffffffffffffffffffff167fd24015cc99cc1700cafca3042840a1d8ac1e3964fd2e0e37ea29c654056ee32760405160405180910390a250565b600160009054906101000a900473ffffffffffffffffffffffffffffffffffffffff1681565b6102d7610703565b6102e1600061078a565b565b6102eb610703565b81600281905550806003819055507f4c426be5267de77bdf09089481a78460e74526bbc3bf9a6df3d7a34bc0b7c956828260405161032a929190610a60565b60405180910390a15050565b60008060009054906101000a900473ffffffffffffffffffffffffffffffffffffffff16905090565b60025481565b60008073ffffffffffffffffffffffffffffffffffffffff16600160009054906101000a900473ffffffffffffffffffffffffffffffffffffffff1673ffffffffffffffffffffffffffffffffffffffff16036103c55760019050610468565b600160009054906101000a900473ffffffffffffffffffffffffffffffffffffffff1673ffffffffffffffffffffffffffffffffffffffff1663e8555603836002546040518363ffffffff1660e01b8152600401610424929190610a89565b602060405180830381865afa158015610441573d6000803e3d6000fd5b505050506040513d601f19601f820116820180604052508101906104659190610ade565b90505b919050565b60008073ffffffffffffffffffffffffffffffffffffffff16600160009054906101000a900473ffffffffffffffffffffffffffffffffffffffff1673ffffffffffffffffffffffffffffffffffffffff16036104cd5760009050610570565b600160009054906101000a900473ffffffffffffffffffffffffffffffffffffffff1673ffffffffffffffffffffffffffffffffffffffff1663e8555603836003546040518363ffffffff1660e01b815260040161052c929190610a89565b602060405180830381865afa158015610549573d6000803e3d6000fd5b505050506040513d601f19601f8201168201806040525081019061056d9190610ade565b90505b919050565b61057d610703565b600073ffffffffffffffffffffffffffffffffffffffff168173ffffffffffffffffffffffffffffffffffffffff16036105ef5760006040517f1e4fbdf70000000000000000000000000000000000000000000000000000000081526004016105e69190610a0f565b60405180910390fd5b6105f88161078a565b50565b60008073ffffffffffffffffffffffffffffffffffffffff16600160009054906101000a900473ffffffffffffffffffffffffffffffffffffffff1673ffffffffffffffffffffffffffffffffffffffff160361065b57600090506106fe565b600160009054906101000a900473ffffffffffffffffffffffffffffffffffffffff1673ffffffffffffffffffffffffffffffffffffffff1663e8555603836002546040518363ffffffff1660e01b81526004016106ba929190610a89565b602060405180830381865afa1580156106d7573d6000803e3d6000fd5b505050506040513d601f19601f820116820180604052508101906106fb9190610ade565b90505b919050565b61070b61084e565b73ffffffffffffffffffffffffffffffffffffffff16610729610336565b73ffffffffffffffffffffffffffffffffffffffff16146107885761074c61084e565b6040517f118cdaa700000000000000000000000000000000000000000000000000000000815260040161077f9190610a0f565b60405180910390fd5b565b60008060009054906101000a900473ffffffffffffffffffffffffffffffffffffffff169050816000806101000a81548173ffffffffffffffffffffffffffffffffffffffff021916908373ffffffffffffffffffffffffffffffffffffffff1602179055508173ffffffffffffffffffffffffffffffffffffffff168173ffffffffffffffffffffffffffffffffffffffff167f8be0079c531659141344cd1fd0a4f28419497f9722a3daafe3b4186f6b6457e060405160405180910390a35050565b600033905090565b6000819050919050565b61086981610856565b82525050565b60006020820190506108846000830184610860565b92915050565b600080fd5b600073ffffffffffffffffffffffffffffffffffffffff82169050919050565b60006108ba8261088f565b9050919050565b6108ca816108af565b81146108d557600080fd5b50565b6000813590506108e7816108c1565b92915050565b6000602082840312156109035761090261088a565b5b6000610911848285016108d8565b91505092915050565b6000819050919050565b600061093f61093a6109358461088f565b61091a565b61088f565b9050919050565b600061095182610924565b9050919050565b600061096382610946565b9050919050565b61097381610958565b82525050565b600060208201905061098e600083018461096a565b92915050565b61099d81610856565b81146109a857600080fd5b50565b6000813590506109ba81610994565b92915050565b600080604083850312156109d7576109d661088a565b5b60006109e5858286016109ab565b92505060206109f6858286016109ab565b9150509250929050565b610a09816108af565b82525050565b6000602082019050610a246000830184610a00565b92915050565b60008115159050919050565b610a3f81610a2a565b82525050565b6000602082019050610a5a6000830184610a36565b92915050565b6000604082019050610a756000830185610860565b610a826020830184610860565b9392505050565b6000604082019050610a9e6000830185610a00565b610aab6020830184610860565b9392505050565b610abb81610a2a565b8114610ac657600080fd5b50565b600081519050610ad881610ab2565b92915050565b600060208284031215610af457610af361088a565b5b6000610b0284828501610ac9565b9150509291505056fea2646970667358221220ca51fb283051ba5e24ef1156645da20fc11183b7fba988fcb5d7bfd5cbfa5c8564736f6c634300081b0033",
  "linkReferences": {},
  "deployedLinkReferences": {}
}