{
  "_format": "hh-sol-artifact-1",
  "contractName": "PayRouteRecurringPayments",
  "sourceName": "src/PayRouteRecurringPayments.sol",
  "abi": [
    {
      "inputs": [
        {
          "internalType": "address",
          "name": "_treasury",
          "type": "address"
        },
        {
          "internalType": "uint256",
          "name": "_protocolFeeBps",
          "type": "uint256"
        }
      ],
      "stateMutability": "nonpayable",
      "type": "constructor"
    },
    {
      "inputs": [
        {
          "internalType": "address",
          "name": "owner",
          "type": "address"
        }
      ],
      "name": "OwnableInvalidOwner",
      "type": "error"
    },
    {
      "inputs": [
        {
          "internalType": "address",
          "name": "account",
          "type": "address"
        }
      ],
      "name": "OwnableUnauthorizedAccount",
      "type": "error"
    },
    {
      "inputs": [],
      "name": "ReentrancyGuardReentrantCall",
      "type": "error"
    },
    {
      "inputs": [
        {
          "internalType": "address",
          "name": "token",
          "type": "address"
        }
      ],
      "name": "SafeERC20FailedOperation",
      "type": "error"
    },
    {
      "anonymous": false,
      "inputs": [
        {
          "indexed": true,
          "internalType": "address",
          "name": "previousOwner",
          "type": "address"
        },
        {
          "indexed": true,
          "internalType": "address",
          "name": "newOwner",
          "type": "address"
        }
      ],
      "name": "OwnershipTransferred",
      "type": "event"
    },
    {
      "anonymous": false,
      "inputs": [
        {
          "indexed": true,
          "internalType": "uint256",
          "name": "subscriptionId",
          "type": "uint256"
        },
        {
          "indexed": true,
          "internalType": "address",
          "name": "subscriber",
          "type": "address"
        }
      ],
      "name": "SubscriptionCancelled",
      "type": "event"
    },
    {
      "anonymous": false,
      "inputs": [
        {
          "indexed": true,
          "internalType": "uint256",
          "name": "subscriptionId",
          "type": "uint256"
        },
        {
          "indexed": true,
          "internalType": "address",
          "name": "subscriber",
          "type": "address"
        },
        {
          "indexed": true,
          "internalType": "address",
          "name": "recipient",
          "type": "address"
        },
        {
          "indexed": false,
          "internalType": "address",
          "name": "token",
          "type": "address"
        },
        {
          "indexed": false,
          "internalType": "uint256",
          "name": "amount",
          "type": "uint256"
        },
        {
          "indexed": false,
          "internalType": "uint256",
          "name": "interval",
          "type": "uint256"
        },
        {
          "indexed": false,
          "internalType": "uint256",
          "name": "executionsLeft",
          "type": "uint256"
        },
        {
          "indexed": false,
          "internalType": "string",
          "name": "memo",
          "type": "string"
        }
      ],
      "name": "SubscriptionCreated",
      "type": "event"
    },
    {
      "anonymous": false,
      "inputs": [
        {
          "indexed": true,
          "internalType": "uint256",
          "name": "subscriptionId",
          "type": "uint256"
        },
        {
          "indexed": true,
          "internalType": "address",
          "name": "executor",
          "type": "address"
        },
        {
          "indexed": false,
          "internalType": "uint256",
          "name": "amount",
          "type": "uint256"
        },
        {
          "indexed": false,
          "internalType": "uint256",
          "name": "protocolFee",
          "type": "uint256"
        },
        {
          "indexed": false,
          "internalType": "uint256",
          "name": "executorTip",
          "type": "uint256"
        },
        {
          "indexed": false,
          "internalType": "uint256",
          "name": "nextExecution",
          "type": "uint256"
        }
      ],
      "name": "SubscriptionExecuted",
      "type": "event"
    },
    {
      "anonymous": false,
      "inputs": [
        {
          "indexed": true,
          "internalType": "uint256",
          "name": "subscriptionId",
          "type": "uint256"
        },
        {
          "indexed": true,
          "internalType": "address",
          "name": "subscriber",
          "type": "address"
        }
      ],
      "name": "SubscriptionPaused",
      "type": "event"
    },
    {
      "anonymous": false,
      "inputs": [
        {
          "indexed": true,
          "internalType": "uint256",
          "name": "subscriptionId",
          "type": "uint256"
        },
        {
          "indexed": true,
          "internalType": "address",
          "name": "subscriber",
          "type": "address"
        }
      ],
      "name": "SubscriptionResumed",
      "type": "event"
    },
    {
      "anonymous": false,
      "inputs": [
        {
          "indexed": true,
          "internalType": "uint256",
          "name": "subscriptionId",
          "type": "uint256"
        },
        {
          "indexed": false,
          "internalType": "uint256",
          "name": "newAmount",
          "type": "uint256"
        },
        {
          "indexed": false,
          "internalType": "uint256",
          "name": "newInterval",
          "type": "uint256"
        }
      ],
      "name": "SubscriptionUpdated",
      "type": "event"
    },
    {
      "anonymous": false,
      "inputs": [
        {
          "indexed": true,
          "internalType": "address",
          "name": "token",
          "type": "address"
        },
        {
          "indexed": false,
          "internalType": "bool",
          "name": "supported",
          "type": "bool"
        }
      ],
      "name": "TokenSupported",
      "type": "event"
    },
    {
      "inputs": [],
      "name": "MAX_INTERVAL",
      "outputs": [
        {
          "internalType": "uint256",
          "name": "",
          "type": "uint256"
        }
      ],
      "stateMutability": "view",
      "type": "function"
    },
    {
      "inputs": [],
      "name": "MIN_INTERVAL",
      "outputs": [
        {
          "internalType": "uint256",
          "name": "",
          "type": "uint256"
        }
      ],
      "stateMutability": "view",
      "type": "function"
    },
    {
      "inputs": [
        {
          "internalType": "uint256[]",
          "name": "subscriptionIds",
          "type": "uint256[]"
        }
      ],
      "name": "batchExecute",
      "outputs": [],
      "stateMutability": "nonpayable",
      "type": "function"
    },
    {
      "inputs": [
        {
          "internalType": "uint256",
          "name": "subscriptionId",
          "type": "uint256"
        }
      ],
      "name": "cancelSubscription",
      "outputs": [],
      "stateMutability": "nonpayable",
      "type": "function"
    },
    {
      "inputs": [
        {
          "internalType": "address",
          "name": "recipient",
          "type": "address"
        },
        {
          "internalType": "address",
          "name": "token",
          "type": "address"
        },
        {
          "internalType": "uint256",
          "name": "amount",
          "type": "uint256"
        },
        {
          "internalType": "uint256",
          "name": "interval",
          "type": "uint256"
        },
        {
          "internalType": "uint256",
          "name": "maxExecutions",
          "type": "uint256"
        },
        {
          "internalType": "uint256",
          "name": "executorTipBps",
          "type": "uint256"
        },
        {
          "internalType": "uint256",
          "name": "startTime",
          "type": "uint256"
        },
        {
          "internalType": "string",
          "name": "memo",
          "type": "string"
        }
      ],
      "name": "createSubscription",
      "outputs": [
        {
          "internalType": "uint256",
          "name": "subscriptionId",
          "type": "uint256"
        }
      ],
      "stateMutability": "nonpayable",
      "type": "function"
    },
    {
      "inputs": [
        {
          "internalType": "uint256",
          "name": "subscriptionId",
          "type": "uint256"
        }
      ],
      "name": "executeSubscription",
      "outputs": [],
      "stateMutability": "nonpayable",
      "type": "function"
    },
    {
      "inputs": [
        {
          "internalType": "uint256[]",
          "name": "ids",
          "type": "uint256[]"
        }
      ],
      "name": "getDueSubscriptions",
      "outputs": [
        {
          "internalType": "uint256[]",
          "name": "dueIds",
          "type": "uint256[]"
        }
      ],
      "stateMutability": "view",
      "type": "function"
    },
    {
      "inputs": [
        {
          "internalType": "address",
          "name": "recipient",
          "type": "address"
        }
      ],
      "name": "getRecipientSubscriptionIds",
      "outputs": [
        {
          "internalType": "uint256[]",
          "name": "",
          "type": "uint256[]"
        }
      ],
      "stateMutability": "view",
      "type": "function"
    },
    {
      "inputs": [
        {
          "internalType": "uint256",
          "name": "subscriptionId",
          "type": "uint256"
        }
      ],
      "name": "getSubscription",
      "outputs": [
        {
          "components": [
            {
              "internalType": "address",
              "name": "subscriber",
              "type": "address"
            },
            {
              "internalType": "address",
              "name": "recipient",
              "type": "address"
            },
            {
              "internalType": "address",
              "name": "token",
              "type": "address"
            },
            {
              "internalType": "uint256",
              "name": "amount",
              "type": "uint256"
            },
            {
              "internalType": "uint256",
              "name": "interval",
              "type": "uint256"
            },
            {
              "internalType": "uint256",
              "name": "lastExecuted",
              "type": "uint256"
            },
            {
              "internalType": "uint256",
              "name": "nextExecution",
              "type": "uint256"
            },
            {
              "internalType": "uint256",
              "name": "executionsLeft",
              "type": "uint256"
            },
            {
              "internalType": "uint256",
              "name": "totalExecuted",
              "type": "uint256"
            },
            {
              "internalType": "uint256",
              "name": "executorTipBps",
              "type": "uint256"
            },
            {
              "internalType": "bool",
              "name": "isActive",
              "type": "bool"
            },
            {
              "internalType": "string",
              "name": "memo",
              "type": "string"
            }
          ],
          "internalType": "struct PayRouteRecurringPayments.Subscription",
          "name": "",
          "type": "tuple"
        }
      ],
      "stateMutability": "view",
      "type": "function"
    },
    {
      "inputs": [
        {
          "internalType": "address",
          "name": "user",
          "type": "address"
        }
      ],
      "name": "getUserSubscriptionIds",
      "outputs": [
        {
          "internalType": "uint256[]",
          "name": "",
          "type": "uint256[]"
        }
      ],
      "stateMutability": "view",
      "type": "function"
    },
    {
      "inputs": [
        {
          "internalType": "uint256",
          "name": "subscriptionId",
          "type": "uint256"
        }
      ],
      "name": "isDue",
      "outputs": [
        {
          "internalType": "bool",
          "name": "",
          "type": "bool"
        }
      ],
      "stateMutability": "view",
      "type": "function"
    },
    {
      "inputs": [],
      "name": "nextSubscriptionId",
      "outputs": [
        {
          "internalType": "uint256",
          "name": "",
          "type": "uint256"
        }
      ],
      "stateMutability": "view",
      "type": "function"
    },
    {
      "inputs": [],
      "name": "owner",
      "outputs": [
        {
          "internalType": "address",
          "name": "",
          "type": "address"
        }
      ],
      "stateMutability": "view",
      "type": "function"
    },
    {
      "inputs": [
        {
          "internalType": "uint256",
          "name": "subscriptionId",
          "type": "uint256"
        }
      ],
      "name": "pauseSubscription",
      "outputs": [],
      "stateMutability": "nonpayable",
      "type": "function"
    },
    {
      "inputs": [],
      "name": "protocolFeeBps",
      "outputs": [
        {
          "internalType": "uint256",
          "name": "",
          "type": "uint256"
        }
      ],
      "stateMutability": "view",
      "type": "function"
    },
    {
      "inputs": [
        {
          "internalType": "address",
          "name": "",
          "type": "address"
        },
        {
          "internalType": "uint256",
          "name": "",
          "type": "uint256"
        }
      ],
      "name": "recipientSubscriptions",
      "outputs": [
        {
          "internalType": "uint256",
          "name": "",
          "type": "uint256"
        }
      ],
      "stateMutability": "view",
      "type": "function"
    },
    {
      "inputs": [],
      "name": "renounceOwnership",
      "outputs": [],
      "stateMutability": "nonpayable",
      "type": "function"
    },
    {
      "inputs": [
        {
          "internalType": "uint256",
          "name": "subscriptionId",
          "type": "uint256"
        }
      ],
      "name": "resumeSubscription",
      "outputs": [],
      "stateMutability": "nonpayable",
      "type": "function"
    },
    {
      "inputs": [
        {
          "internalType": "uint256",
          "name": "_feeBps",
          "type": "uint256"
        }
      ],
      "name": "setProtocolFeeBps",
      "outputs": [],
      "stateMutability": "nonpayable",
      "type": "function"
    },
    {
      "inputs": [
        {
          "internalType": "address",
          "name": "token",
          "type": "address"
        },
        {
          "internalType": "bool",
          "name": "supported",
          "type": "bool"
        }
      ],
      "name": "setSupportedToken",
      "outputs": [],
      "stateMutability": "nonpayable",
      "type": "function"
    },
    {
      "inputs": [
        {
          "internalType": "address",
          "name": "_treasury",
          "type": "address"
        }
      ],
      "name": "setTreasury",
      "outputs": [],
      "stateMutability": "nonpayable",
      "type": "function"
    },
    {
      "inputs": [
        {
          "internalType": "uint256",
          "name": "",
          "type": "uint256"
        }
      ],
      "name": "subscriptions",
      "outputs": [
        {
          "internalType": "address",
          "name": "subscriber",
          "type": "address"
        },
        {
          "internalType": "address",
          "name": "recipient",
          "type": "address"
        },
        {
          "internalType": "address",
          "name": "token",
          "type": "address"
        },
        {
          "internalType": "uint256",
          "name": "amount",
          "type": "uint256"
        },
        {
          "internalType": "uint256",
          "name": "interval",
          "type": "uint256"
        },
        {
          "internalType": "uint256",
          "name": "lastExecuted",
          "type": "uint256"
        },
        {
          "internalType": "uint256",
          "name": "nextExecution",
          "type": "uint256"
        },
        {
          "internalType": "uint256",
          "name": "executionsLeft",
          "type": "uint256"
        },
        {
          "internalType": "uint256",
          "name": "totalExecuted",
          "type": "uint256"
        },
        {
          "internalType": "uint256",
          "name": "executorTipBps",
          "type": "uint256"
        },
        {
          "internalType": "bool",
          "name": "isActive",
          "type": "bool"
        },
        {
          "internalType": "string",
          "name": "memo",
          "type": "string"
        }
      ],
      "stateMutability": "view",
      "type": "function"
    },
    {
      "inputs": [
        {
          "internalType": "address",
          "name": "",
          "type": "address"
        }
      ],
      "name": "supportedTokens",
      "outputs": [
        {
          "internalType": "bool",
          "name": "",
          "type": "bool"
        }
      ],
      "stateMutability": "view",
      "type": "function"
    },
    {
      "inputs": [
        {
          "internalType": "address",
          "name": "newOwner",
          "type": "address"
        }
      ],
      "name": "transferOwnership",
      "outputs": [],
      "stateMutability": "nonpayable",
      "type": "function"
    },
    {
      "inputs": [],
      "name": "treasury",
      "outputs": [
        {
          "internalType": "address",
          "name": "",
          "type": "address"
        }
      ],
      "stateMutability": "view",
      "type": "function"
    },
    {
      "inputs": [
        {
          "internalType": "uint256",
          "name": "subscriptionId",
          "type": "uint256"
        },
        {
          "internalType": "uint256",
          "name": "newAmount",
          "type": "uint256"
        },
        {
          "internalType": "uint256",
          "name": "newInterval",
          "type": "uint256"
        }
      ],
      "name": "updateSubscription",
      "outputs": [],
      "stateMutability": "nonpayable",
      "type": "function"
    },
    {
      "inputs": [
        {
          "internalType": "address",
          "name": "",
          "type": "address"
        },
        {
          "internalType": "uint256",
          "name": "",
          "type": "uint256"
        }
      ],
      "name": "userSubscriptions",
      "outputs": [
        {
          "internalType": "uint256",
          "name": "",
          "type": "uint256"
        }
      ],
      "stateMutability": "view",
      "type": "function"
    }
  ],
  "bytecode": "0x608060405234801561001057600080fd5b50604051613c3d380380613c3d83398181016040528101906100329190610268565b33600073ffffffffffffffffffffffffffffffffffffffff168173ffffffffffffffffffffffffffffffffffffffff16036100a55760006040517f1e4fbdf700000000000000000000000000000000000000000000000000000000815260040161009c91906102b7565b60405180910390fd5b6100b48161010b60201b60201c565b506001808190555081600760006101000a81548173ffffffffffffffffffffffffffffffffffffffff021916908373ffffffffffffffffffffffffffffffffffffffff1602179055508060088190555050506102d2565b60008060009054906101000a900473ffffffffffffffffffffffffffffffffffffffff169050816000806101000a81548173ffffffffffffffffffffffffffffffffffffffff021916908373ffffffffffffffffffffffffffffffffffffffff1602179055508173ffffffffffffffffffffffffffffffffffffffff168173ffffffffffffffffffffffffffffffffffffffff167f8be0079c531659141344cd1fd0a4f28419497f9722a3daafe3b4186f6b6457e060405160405180910390a35050565b600080fd5b600073ffffffffffffffffffffffffffffffffffffffff82169050919050565b60006101ff826101d4565b9050919050565b61020f816101f4565b811461021a57600080fd5b50565b60008151905061022c81610206565b92915050565b6000819050919050565b61024581610232565b811461025057600080fd5b50565b6000815190506102628161023c565b92915050565b6000806040838503121561027f5761027e6101cf565b5b600061028d8582860161021d565b925050602061029e85828601610253565b9150509250929050565b6102b1816101f4565b82525050565b60006020820190506102cc60008301846102a8565b92915050565b61395c806102e16000396000f3fe608060405234801561001057600080fd5b50600436106101a85760003560e01c80638da5cb5b116100f9578063e798646611610097578063f0f4426011610071578063f0f44260146104fc578063f2fde38b14610518578063fede611414610534578063fefe172a14610552576101a8565b8063e798646614610494578063e8903656146104b0578063ea52334c146104cc576101a8565b8063c0417e58116100d3578063c0417e58146103fa578063c95d6edc14610416578063da58935f14610446578063dc311dd314610464576101a8565b80638da5cb5b1461038e578063923f6ef4146103ac578063c0368740146103dc576101a8565b806335659fb81161016657806355d079291161014057806355d079291461030657806361d027b31461033657806368c4ac2614610354578063715018a614610384576101a8565b806335659fb81461029c57806341f23f0a146102ba5780635583a930146102d6576101a8565b8062a0d28f146101ad578063023a584e146101c957806317eb5460146101e557806319cd62781461021557806321235083146102455780632d5bbf6014610261575b600080fd5b6101c760048036038101906101c291906124d7565b61056e565b005b6101e360048036038101906101de919061255a565b61060c565b005b6101ff60048036038101906101fa91906125e5565b610782565b60405161020c91906126d0565b60405180910390f35b61022f600480360381019061022a91906124d7565b610819565b60405161023c91906126d0565b60405180910390f35b61025f600480360381019061025a919061255a565b6109ad565b005b61027b6004803603810190610276919061255a565b610b0c565b6040516102939c9b9a999897969594939291906127bb565b60405180910390f35b6102a4610c61565b6040516102b1919061287c565b60405180910390f35b6102d460048036038101906102cf919061255a565b610c67565b005b6102f060048036038101906102eb919061255a565b610dc6565b6040516102fd9190612897565b60405180910390f35b610320600480360381019061031b9190612908565b610e08565b60405161032d919061287c565b60405180910390f35b61033e61140d565b60405161034b91906129de565b60405180910390f35b61036e600480360381019061036991906125e5565b611433565b60405161037b9190612897565b60405180910390f35b61038c611453565b005b610396611467565b6040516103a391906129de565b60405180910390f35b6103c660048036038101906103c191906129f9565b611490565b6040516103d3919061287c565b60405180910390f35b6103e46114c1565b6040516103f1919061287c565b60405180910390f35b610414600480360381019061040f919061255a565b6114c7565b005b610430600480360381019061042b91906129f9565b61151d565b60405161043d919061287c565b60405180910390f35b61044e61154e565b60405161045b919061287c565b60405180910390f35b61047e6004803603810190610479919061255a565b611554565b60405161048b9190612ba5565b60405180910390f35b6104ae60048036038101906104a99190612bf3565b611777565b005b6104ca60048036038101906104c5919061255a565b611828565b005b6104e660048036038101906104e191906125e5565b611cba565b6040516104f391906126d0565b60405180910390f35b610516600480360381019061051191906125e5565b611d51565b005b610532600480360381019061052d91906125e5565b611e0c565b005b61053c611e92565b604051610549919061287c565b60405180910390f35b61056c60048036038101906105679190612c33565b611e9a565b005b60005b82829050811015610607573073ffffffffffffffffffffffffffffffffffffffff1663e89036568484848181106105ab576105aa612c86565b5b905060200201356040518263ffffffff1660e01b81526004016105ce919061287c565b600060405180830381600087803b1580156105e857600080fd5b505af19250505080156105f9575060015b508080600101915050610571565b505050565b60006003600083815260200190815260200160002090503373ffffffffffffffffffffffffffffffffffffffff168160000160009054906101000a900473ffffffffffffffffffffffffffffffffffffffff1673ffffffffffffffffffffffffffffffffffffffff16146106b5576040517f08c379a00000000000000000000000000000000000000000000000000000000081526004016106ac90612d01565b60405180910390fd5b80600a0160009054906101000a900460ff1615610707576040517f08c379a00000000000000000000000000000000000000000000000000000000081526004016106fe90612d6d565b60405180910390fd5b600181600a0160006101000a81548160ff021916908315150217905550428160060154101561073a574281600601819055505b3373ffffffffffffffffffffffffffffffffffffffff16827fd13b5f8d2e4901890b0c4487e78268b05e17db24ed2b23450caa809f66b2458560405160405180910390a35050565b6060600560008373ffffffffffffffffffffffffffffffffffffffff1673ffffffffffffffffffffffffffffffffffffffff16815260200190815260200160002080548060200260200160405190810160405280929190818152602001828054801561080d57602002820191906000526020600020905b8154815260200190600101908083116107f9575b50505050509050919050565b60606000805b8484905081101561089e5760006003600087878581811061084357610842612c86565b5b905060200201358152602001908152602001600020905080600a0160009054906101000a900460ff16801561087c575080600601544210155b1561089057828061088c90612dbc565b9350505b50808060010191505061081f565b508067ffffffffffffffff8111156108b9576108b8612e04565b5b6040519080825280602002602001820160405280156108e75781602001602082028036833780820191505090505b5091506000805b858590508110156109a45760006003600088888581811061091257610911612c86565b5b905060200201358152602001908152602001600020905080600a0160009054906101000a900460ff16801561094b575080600601544210155b156109965786868381811061096357610962612c86565b5b9050602002013585848061097690612dbc565b95508151811061098957610988612c86565b5b6020026020010181815250505b5080806001019150506108ee565b50505092915050565b60006003600083815260200190815260200160002090503373ffffffffffffffffffffffffffffffffffffffff168160000160009054906101000a900473ffffffffffffffffffffffffffffffffffffffff1673ffffffffffffffffffffffffffffffffffffffff1614610a56576040517f08c379a0000000000000000000000000000000000000000000000000000000008152600401610a4d90612d01565b60405180910390fd5b80600a0160009054906101000a900460ff16610aa7576040517f08c379a0000000000000000000000000000000000000000000000000000000008152600401610a9e90612e7f565b60405180910390fd5b600081600a0160006101000a81548160ff0219169083151502179055503373ffffffffffffffffffffffffffffffffffffffff16827f533734a768f070673b823079652464b7e002bb51cdf15e3108209f397425225f60405160405180910390a35050565b60036020528060005260406000206000915090508060000160009054906101000a900473ffffffffffffffffffffffffffffffffffffffff16908060010160009054906101000a900473ffffffffffffffffffffffffffffffffffffffff16908060020160009054906101000a900473ffffffffffffffffffffffffffffffffffffffff169080600301549080600401549080600501549080600601549080600701549080600801549080600901549080600a0160009054906101000a900460ff169080600b018054610bde90612ece565b80601f0160208091040260200160405190810160405280929190818152602001828054610c0a90612ece565b8015610c575780601f10610c2c57610100808354040283529160200191610c57565b820191906000526020600020905b815481529060010190602001808311610c3a57829003601f168201915b505050505090508c565b60085481565b60006003600083815260200190815260200160002090503373ffffffffffffffffffffffffffffffffffffffff168160000160009054906101000a900473ffffffffffffffffffffffffffffffffffffffff1673ffffffffffffffffffffffffffffffffffffffff1614610d10576040517f08c379a0000000000000000000000000000000000000000000000000000000008152600401610d0790612d01565b60405180910390fd5b80600a0160009054906101000a900460ff16610d61576040517f08c379a0000000000000000000000000000000000000000000000000000000008152600401610d5890612f4b565b60405180910390fd5b600081600a0160006101000a81548160ff0219169083151502179055503373ffffffffffffffffffffffffffffffffffffffff16827f25a87732c0536735f3ab7dd339abd21dd0ef78059a500c3927a6cfeb98f9069460405160405180910390a35050565b60008060036000848152602001908152602001600020905080600a0160009054906101000a900460ff168015610e00575080600601544210155b915050919050565b60008073ffffffffffffffffffffffffffffffffffffffff168a73ffffffffffffffffffffffffffffffffffffffff1603610e78576040517f08c379a0000000000000000000000000000000000000000000000000000000008152600401610e6f90612fb7565b60405180910390fd5b3373ffffffffffffffffffffffffffffffffffffffff168a73ffffffffffffffffffffffffffffffffffffffff1603610ee6576040517f08c379a0000000000000000000000000000000000000000000000000000000008152600401610edd90613023565b60405180910390fd5b600660008a73ffffffffffffffffffffffffffffffffffffffff1673ffffffffffffffffffffffffffffffffffffffff16815260200190815260200160002060009054906101000a900460ff16610f72576040517f08c379a0000000000000000000000000000000000000000000000000000000008152600401610f699061308f565b60405180910390fd5b60008811610fb5576040517f08c379a0000000000000000000000000000000000000000000000000000000008152600401610fac906130fb565b60405180910390fd5b610e108710158015610fcb57506301e133808711155b61100a576040517f08c379a000000000000000000000000000000000000000000000000000000000815260040161100190613167565b60405180910390fd5b6101f485111561104f576040517f08c379a0000000000000000000000000000000000000000000000000000000008152600401611046906131d3565b60405180910390fd5b6002600081548092919061106290612dbc565b91905055905060004285116110775742611079565b845b90506040518061018001604052803373ffffffffffffffffffffffffffffffffffffffff1681526020018c73ffffffffffffffffffffffffffffffffffffffff1681526020018b73ffffffffffffffffffffffffffffffffffffffff1681526020018a8152602001898152602001600081526020018281526020018881526020016000815260200187815260200160011515815260200185858080601f016020809104026020016040519081016040528093929190818152602001838380828437600081840152601f19601f820116905080830192505050505050508152506003600084815260200190815260200160002060008201518160000160006101000a81548173ffffffffffffffffffffffffffffffffffffffff021916908373ffffffffffffffffffffffffffffffffffffffff16021790555060208201518160010160006101000a81548173ffffffffffffffffffffffffffffffffffffffff021916908373ffffffffffffffffffffffffffffffffffffffff16021790555060408201518160020160006101000a81548173ffffffffffffffffffffffffffffffffffffffff021916908373ffffffffffffffffffffffffffffffffffffffff160217905550606082015181600301556080820151816004015560a0820151816005015560c0820151816006015560e082015181600701556101008201518160080155610120820151816009015561014082015181600a0160006101000a81548160ff02191690831515021790555061016082015181600b0190816112bf919061339f565b50905050600460003373ffffffffffffffffffffffffffffffffffffffff1673ffffffffffffffffffffffffffffffffffffffff168152602001908152602001600020829080600181540180825580915050600190039060005260206000200160009091909190915055600560008c73ffffffffffffffffffffffffffffffffffffffff1673ffffffffffffffffffffffffffffffffffffffff1681526020019081526020016000208290806001815401808255809150506001900390600052602060002001600090919091909150558a73ffffffffffffffffffffffffffffffffffffffff163373ffffffffffffffffffffffffffffffffffffffff16837f0a9c300fe73b35e2918edef42a94ec525465b3ecebdb67a7005e24d75ba37de38d8d8d8d8b8b6040516113f7969594939291906134ad565b60405180910390a4509998505050505050505050565b600760009054906101000a900473ffffffffffffffffffffffffffffffffffffffff1681565b60066020528060005260406000206000915054906101000a900460ff1681565b61145b61207e565b6114656000612105565b565b60008060009054906101000a900473ffffffffffffffffffffffffffffffffffffffff16905090565b600560205281600052604060002081815481106114ac57600080fd5b90600052602060002001600091509150505481565b610e1081565b6114cf61207e565b6064811115611513576040517f08c379a000000000000000000000000000000000000000000000000000000000815260040161150a90613555565b60405180910390fd5b8060088190555050565b6004602052816000526040600020818154811061153957600080fd5b90600052602060002001600091509150505481565b60025481565b61155c6123c3565b60036000838152602001908152602001600020604051806101800160405290816000820160009054906101000a900473ffffffffffffffffffffffffffffffffffffffff1673ffffffffffffffffffffffffffffffffffffffff1673ffffffffffffffffffffffffffffffffffffffff1681526020016001820160009054906101000a900473ffffffffffffffffffffffffffffffffffffffff1673ffffffffffffffffffffffffffffffffffffffff1673ffffffffffffffffffffffffffffffffffffffff1681526020016002820160009054906101000a900473ffffffffffffffffffffffffffffffffffffffff1673ffffffffffffffffffffffffffffffffffffffff1673ffffffffffffffffffffffffffffffffffffffff16815260200160038201548152602001600482015481526020016005820154815260200160068201548152602001600782015481526020016008820154815260200160098201548152602001600a820160009054906101000a900460ff16151515158152602001600b820180546116ee90612ece565b80601f016020809104026020016040519081016040528092919081815260200182805461171a90612ece565b80156117675780601f1061173c57610100808354040283529160200191611767565b820191906000526020600020905b81548152906001019060200180831161174a57829003601f168201915b5050505050815250509050919050565b61177f61207e565b80600660008473ffffffffffffffffffffffffffffffffffffffff1673ffffffffffffffffffffffffffffffffffffffff16815260200190815260200160002060006101000a81548160ff0219169083151502179055508173ffffffffffffffffffffffffffffffffffffffff167fd86c88b4a367d9b81a6e00c9d3f7d01657bffef358fa8968c91c045ae99f0d528260405161181c9190612897565b60405180910390a25050565b6118306121c9565b600060036000838152602001908152602001600020905080600a0160009054906101000a900460ff16611898576040517f08c379a000000000000000000000000000000000000000000000000000000000815260040161188f906135c1565b60405180910390fd5b80600601544210156118df576040517f08c379a00000000000000000000000000000000000000000000000000000000081526004016118d69061362d565b60405180910390fd5b6000816007015414806118f6575060008160070154115b611935576040517f08c379a000000000000000000000000000000000000000000000000000000000815260040161192c90613699565b60405180910390fd5b60008160070154111561198757806007016000815480929190611957906136b9565b9190505550600081600701540361198657600081600a0160006101000a81548160ff0219169083151502179055505b5b6000816003015490506000612710600854836119a391906136e2565b6119ad9190613753565b905060006127108460090154846119c491906136e2565b6119ce9190613753565b905060008183856119df9190613784565b6119e99190613784565b9050611a608560000160009054906101000a900473ffffffffffffffffffffffffffffffffffffffff1630868860020160009054906101000a900473ffffffffffffffffffffffffffffffffffffffff1673ffffffffffffffffffffffffffffffffffffffff1661220f909392919063ffffffff16565b6000831115611adb57611ada600760009054906101000a900473ffffffffffffffffffffffffffffffffffffffff16848760020160009054906101000a900473ffffffffffffffffffffffffffffffffffffffff1673ffffffffffffffffffffffffffffffffffffffff166122919092919063ffffffff16565b5b600082118015611b3b57508460000160009054906101000a900473ffffffffffffffffffffffffffffffffffffffff1673ffffffffffffffffffffffffffffffffffffffff163373ffffffffffffffffffffffffffffffffffffffff1614155b15611b9457611b8f33838760020160009054906101000a900473ffffffffffffffffffffffffffffffffffffffff1673ffffffffffffffffffffffffffffffffffffffff166122919092919063ffffffff16565b611ba3565b8181611ba091906137b8565b90505b611c168560010160009054906101000a900473ffffffffffffffffffffffffffffffffffffffff16828760020160009054906101000a900473ffffffffffffffffffffffffffffffffffffffff1673ffffffffffffffffffffffffffffffffffffffff166122919092919063ffffffff16565b428560050181905550846004015442611c2f91906137b8565b8560060181905550846008016000815480929190611c4c90612dbc565b91905055503373ffffffffffffffffffffffffffffffffffffffff16867f044f341c58091d113a1d06173b8a18793650b7a7981af53ace2286a37fe30e3e8686868a60060154604051611ca294939291906137ec565b60405180910390a35050505050611cb7612310565b50565b6060600460008373ffffffffffffffffffffffffffffffffffffffff1673ffffffffffffffffffffffffffffffffffffffff168152602001908152602001600020805480602002602001604051908101604052809291908181526020018280548015611d4557602002820191906000526020600020905b815481526020019060010190808311611d31575b50505050509050919050565b611d5961207e565b600073ffffffffffffffffffffffffffffffffffffffff168173ffffffffffffffffffffffffffffffffffffffff1603611dc8576040517f08c379a0000000000000000000000000000000000000000000000000000000008152600401611dbf9061387d565b60405180910390fd5b80600760006101000a81548173ffffffffffffffffffffffffffffffffffffffff021916908373ffffffffffffffffffffffffffffffffffffffff16021790555050565b611e1461207e565b600073ffffffffffffffffffffffffffffffffffffffff168173ffffffffffffffffffffffffffffffffffffffff1603611e865760006040517f1e4fbdf7000000000000000000000000000000000000000000000000000000008152600401611e7d91906129de565b60405180910390fd5b611e8f81612105565b50565b6301e1338081565b60006003600085815260200190815260200160002090503373ffffffffffffffffffffffffffffffffffffffff168160000160009054906101000a900473ffffffffffffffffffffffffffffffffffffffff1673ffffffffffffffffffffffffffffffffffffffff1614611f43576040517f08c379a0000000000000000000000000000000000000000000000000000000008152600401611f3a90612d01565b60405180910390fd5b80600a0160009054906101000a900460ff16611f94576040517f08c379a0000000000000000000000000000000000000000000000000000000008152600401611f8b90612f4b565b60405180910390fd5b60008311611fd7576040517f08c379a0000000000000000000000000000000000000000000000000000000008152600401611fce906130fb565b60405180910390fd5b610e108210158015611fed57506301e133808211155b61202c576040517f08c379a000000000000000000000000000000000000000000000000000000000815260040161202390613167565b60405180910390fd5b828160030181905550818160040181905550837f6f6a7fe5088cede257ecba456c6bd063ac27a8f7ed056bdc49ea01c8d2d2e534848460405161207092919061389d565b60405180910390a250505050565b612086612319565b73ffffffffffffffffffffffffffffffffffffffff166120a4611467565b73ffffffffffffffffffffffffffffffffffffffff1614612103576120c7612319565b6040517f118cdaa70000000000000000000000000000000000000000000000000000000081526004016120fa91906129de565b60405180910390fd5b565b60008060009054906101000a900473ffffffffffffffffffffffffffffffffffffffff169050816000806101000a81548173ffffffffffffffffffffffffffffffffffffffff021916908373ffffffffffffffffffffffffffffffffffffffff1602179055508173ffffffffffffffffffffffffffffffffffffffff168173ffffffffffffffffffffffffffffffffffffffff167f8be0079c531659141344cd1fd0a4f28419497f9722a3daafe3b4186f6b6457e060405160405180910390a35050565b600260015403612205576040517f3ee5aeb500000000000000000000000000000000000000000000000000000000815260040160405180910390fd5b6002600181905550565b61228b848573ffffffffffffffffffffffffffffffffffffffff166323b872dd868686604051602401612244939291906138c6565b604051602081830303815290604052915060e01b6020820180517bffffffffffffffffffffffffffffffffffffffffffffffffffffffff8381831617835250505050612321565b50505050565b61230b838473ffffffffffffffffffffffffffffffffffffffff1663a9059cbb85856040516024016122c49291906138fd565b604051602081830303815290604052915060e01b6020820180517bffffffffffffffffffffffffffffffffffffffffffffffffffffffff8381831617835250505050612321565b505050565b60018081905550565b600033905090565b600080602060008451602086016000885af180612344576040513d6000823e3d81fd5b3d92506000519150506000821461235f57600181141561237b565b60008473ffffffffffffffffffffffffffffffffffffffff163b145b156123bd57836040517f5274afe70000000000000000000000000000000000000000000000000000000081526004016123b491906129de565b60405180910390fd5b50505050565b604051806101800160405280600073ffffffffffffffffffffffffffffffffffffffff168152602001600073ffffffffffffffffffffffffffffffffffffffff168152602001600073ffffffffffffffffffffffffffffffffffffffff16815260200160008152602001600081526020016000815260200160008152602001600081526020016000815260200160008152602001600015158152602001606081525090565b600080fd5b600080fd5b600080fd5b600080fd5b600080fd5b60008083601f84011261249757612496612472565b5b8235905067ffffffffffffffff8111156124b4576124b3612477565b5b6020830191508360208202830111156124d0576124cf61247c565b5b9250929050565b600080602083850312156124ee576124ed612468565b5b600083013567ffffffffffffffff81111561250c5761250b61246d565b5b61251885828601612481565b92509250509250929050565b6000819050919050565b61253781612524565b811461254257600080fd5b50565b6000813590506125548161252e565b92915050565b6000602082840312156125705761256f612468565b5b600061257e84828501612545565b91505092915050565b600073ffffffffffffffffffffffffffffffffffffffff82169050919050565b60006125b282612587565b9050919050565b6125c2816125a7565b81146125cd57600080fd5b50565b6000813590506125df816125b9565b92915050565b6000602082840312156125fb576125fa612468565b5b6000612609848285016125d0565b91505092915050565b600081519050919050565b600082825260208201905092915050565b6000819050602082019050919050565b61264781612524565b82525050565b6000612659838361263e565b60208301905092915050565b6000602082019050919050565b600061267d82612612565b612687818561261d565b93506126928361262e565b8060005b838110156126c35781516126aa888261264d565b97506126b583612665565b925050600181019050612696565b5085935050505092915050565b600060208201905081810360008301526126ea8184612672565b905092915050565b6126fb816125a7565b82525050565b61270a81612524565b82525050565b60008115159050919050565b61272581612710565b82525050565b600081519050919050565b600082825260208201905092915050565b60005b8381101561276557808201518184015260208101905061274a565b60008484015250505050565b6000601f19601f8301169050919050565b600061278d8261272b565b6127978185612736565b93506127a7818560208601612747565b6127b081612771565b840191505092915050565b6000610180820190506127d1600083018f6126f2565b6127de602083018e6126f2565b6127eb604083018d6126f2565b6127f8606083018c612701565b612805608083018b612701565b61281260a083018a612701565b61281f60c0830189612701565b61282c60e0830188612701565b61283a610100830187612701565b612848610120830186612701565b61285661014083018561271c565b8181036101608301526128698184612782565b90509d9c50505050505050505050505050565b60006020820190506128916000830184612701565b92915050565b60006020820190506128ac600083018461271c565b92915050565b60008083601f8401126128c8576128c7612472565b5b8235905067ffffffffffffffff8111156128e5576128e4612477565b5b6020830191508360018202830111156129015761290061247c565b5b9250929050565b60008060008060008060008060006101008a8c03121561292b5761292a612468565b5b60006129398c828d016125d0565b995050602061294a8c828d016125d0565b985050604061295b8c828d01612545565b975050606061296c8c828d01612545565b965050608061297d8c828d01612545565b95505060a061298e8c828d01612545565b94505060c061299f8c828d01612545565b93505060e08a013567ffffffffffffffff8111156129c0576129bf61246d565b5b6129cc8c828d016128b2565b92509250509295985092959850929598565b60006020820190506129f360008301846126f2565b92915050565b60008060408385031215612a1057612a0f612468565b5b6000612a1e858286016125d0565b9250506020612a2f85828601612545565b9150509250929050565b612a42816125a7565b82525050565b612a5181612710565b82525050565b600082825260208201905092915050565b6000612a738261272b565b612a7d8185612a57565b9350612a8d818560208601612747565b612a9681612771565b840191505092915050565b600061018083016000830151612aba6000860182612a39565b506020830151612acd6020860182612a39565b506040830151612ae06040860182612a39565b506060830151612af3606086018261263e565b506080830151612b06608086018261263e565b5060a0830151612b1960a086018261263e565b5060c0830151612b2c60c086018261263e565b5060e0830151612b3f60e086018261263e565b50610100830151612b5461010086018261263e565b50610120830151612b6961012086018261263e565b50610140830151612b7e610140860182612a48565b50610160830151848203610160860152612b988282612a68565b9150508091505092915050565b60006020820190508181036000830152612bbf8184612aa1565b905092915050565b612bd081612710565b8114612bdb57600080fd5b50565b600081359050612bed81612bc7565b92915050565b60008060408385031215612c0a57612c09612468565b5b6000612c18858286016125d0565b9250506020612c2985828601612bde565b9150509250929050565b600080600060608486031215612c4c57612c4b612468565b5b6000612c5a86828701612545565b9350506020612c6b86828701612545565b9250506040612c7c86828701612545565b9150509250925092565b7f4e487b7100000000000000000000000000000000000000000000000000000000600052603260045260246000fd5b7f4e6f742073756273637269626572000000000000000000000000000000000000600082015250565b6000612ceb600e83612736565b9150612cf682612cb5565b602082019050919050565b60006020820190508181036000830152612d1a81612cde565b9050919050565b7f416c726561647920616374697665000000000000000000000000000000000000600082015250565b6000612d57600e83612736565b9150612d6282612d21565b602082019050919050565b60006020820190508181036000830152612d8681612d4a565b9050919050565b7f4e487b7100000000000000000000000000000000000000000000000000000000600052601160045260246000fd5b6000612dc782612524565b91507fffffffffffffffffffffffffffffffffffffffffffffffffffffffffffffffff8203612df957612df8612d8d565b5b600182019050919050565b7f4e487b7100000000000000000000000000000000000000000000000000000000600052604160045260246000fd5b7f416c72656164792063616e63656c6c6564000000000000000000000000000000600082015250565b6000612e69601183612736565b9150612e7482612e33565b602082019050919050565b60006020820190508181036000830152612e9881612e5c565b9050919050565b7f4e487b7100000000000000000000000000000000000000000000000000000000600052602260045260246000fd5b60006002820490506001821680612ee657607f821691505b602082108103612ef957612ef8612e9f565b5b50919050565b7f4e6f742061637469766500000000000000000000000000000000000000000000600082015250565b6000612f35600a83612736565b9150612f4082612eff565b602082019050919050565b60006020820190508181036000830152612f6481612f28565b9050919050565b7f496e76616c696420726563697069656e74000000000000000000000000000000600082015250565b6000612fa1601183612736565b9150612fac82612f6b565b602082019050919050565b60006020820190508181036000830152612fd081612f94565b9050919050565b7f43616e6e6f742073756273637269626520746f2073656c660000000000000000600082015250565b600061300d601883612736565b915061301882612fd7565b602082019050919050565b6000602082019050818103600083015261303c81613000565b9050919050565b7f546f6b656e206e6f7420737570706f7274656400000000000000000000000000600082015250565b6000613079601383612736565b915061308482613043565b602082019050919050565b600060208201905081810360008301526130a88161306c565b9050919050565b7f416d6f756e74206d757374206265203e20300000000000000000000000000000600082015250565b60006130e5601283612736565b91506130f0826130af565b602082019050919050565b60006020820190508181036000830152613114816130d8565b9050919050565b7f496e76616c696420696e74657276616c00000000000000000000000000000000600082015250565b6000613151601083612736565b915061315c8261311b565b602082019050919050565b6000602082019050818103600083015261318081613144565b9050919050565b7f54697020746f6f20686967680000000000000000000000000000000000000000600082015250565b60006131bd600c83612736565b91506131c882613187565b602082019050919050565b600060208201905081810360008301526131ec816131b0565b9050919050565b60008190508160005260206000209050919050565b60006020601f8301049050919050565b600082821b905092915050565b6000600883026132557fffffffffffffffffffffffffffffffffffffffffffffffffffffffffffffffff82613218565b61325f8683613218565b95508019841693508086168417925050509392505050565b6000819050919050565b600061329c61329761329284612524565b613277565b612524565b9050919050565b6000819050919050565b6132b683613281565b6132ca6132c2826132a3565b848454613225565b825550505050565b600090565b6132df6132d2565b6132ea8184846132ad565b505050565b5b8181101561330e576133036000826132d7565b6001810190506132f0565b5050565b601f82111561335357613324816131f3565b61332d84613208565b8101602085101561333c578190505b61335061334885613208565b8301826132ef565b50505b505050565b600082821c905092915050565b600061337660001984600802613358565b1980831691505092915050565b600061338f8383613365565b9150826002028217905092915050565b6133a88261272b565b67ffffffffffffffff8111156133c1576133c0612e04565b5b6133cb8254612ece565b6133d6828285613312565b600060209050601f83116001811461340957600084156133f7578287015190505b6134018582613383565b865550613469565b601f198416613417866131f3565b60005b8281101561343f5784890151825560018201915060208501945060208101905061341a565b8683101561345c5784890151613458601f891682613365565b8355505b6001600288020188555050505b505050505050565b82818337600083830152505050565b600061348c8385612736565b9350613499838584613471565b6134a283612771565b840190509392505050565b600060a0820190506134c260008301896126f2565b6134cf6020830188612701565b6134dc6040830187612701565b6134e96060830186612701565b81810360808301526134fc818486613480565b9050979650505050505050565b7f46656520746f6f20686967680000000000000000000000000000000000000000600082015250565b600061353f600c83612736565b915061354a82613509565b602082019050919050565b6000602082019050818103600083015261356e81613532565b9050919050565b7f537562736372697074696f6e206e6f7420616374697665000000000000000000600082015250565b60006135ab601783612736565b91506135b682613575565b602082019050919050565b600060208201905081810360008301526135da8161359e565b9050919050565b7f4e6f742079657420647565000000000000000000000000000000000000000000600082015250565b6000613617600b83612736565b9150613622826135e1565b602082019050919050565b600060208201905081810360008301526136468161360a565b9050919050565b7f4e6f20657865637574696f6e73206c6566740000000000000000000000000000600082015250565b6000613683601283612736565b915061368e8261364d565b602082019050919050565b600060208201905081810360008301526136b281613676565b9050919050565b60006136c482612524565b9150600082036136d7576136d6612d8d565b5b600182039050919050565b60006136ed82612524565b91506136f883612524565b925082820261370681612524565b9150828204841483151761371d5761371c612d8d565b5b5092915050565b7f4e487b7100000000000000000000000000000000000000000000000000000000600052601260045260246000fd5b600061375e82612524565b915061376983612524565b92508261377957613778613724565b5b828204905092915050565b600061378f82612524565b915061379a83612524565b92508282039050818111156137b2576137b1612d8d565b5b92915050565b60006137c382612524565b91506137ce83612524565b92508282019050808211156137e6576137e5612d8d565b5b92915050565b60006080820190506138016000830187612701565b61380e6020830186612701565b61381b6040830185612701565b6138286060830184612701565b95945050505050565b7f496e76616c696420747265617375727900000000000000000000000000000000600082015250565b6000613867601083612736565b915061387282613831565b602082019050919050565b600060208201905081810360008301526138968161385a565b9050919050565b60006040820190506138b26000830185612701565b6138bf6020830184612701565b9392505050565b60006060820190506138db60008301866126f2565b6138e860208301856126f2565b6138f56040830184612701565b949350505050565b600060408201905061391260008301856126f2565b61391f6020830184612701565b939250505056fea26469706673582212208cb712c2abd60f7a8fe0b47c31ad43e4cfc32b4206a4126b041ae62ae866e5aa64736f6c634300081b0033",
  "linkReferences": {},
  "deployedLinkReferences": {}
}